:100000000201BC7374617274006765740073657477
:1000100000736F616B74656D7000736F616B7469F1
:100020006D65007265666C6F7774656D70007265E2
:10003000666C6F7774696D65007560007561007539
:10004000620075630075640075650075660075670C
:1000500000C299C298759300227830799075930008
:10006000E6B420030880F9B40002801BE8F7090514
:1000700093E593B40302800F08E6B400028008B44D
:1000800020F676000880D922C0E0E6FAE493B400B6
:1000900006EAB40009800C6A700408A380ECC298D8
:1000A000D0E022D298D0E0227990E7F890000D12AB
:1000B000008820981B7990E7F890000312008820B0
:1000C000986E7990E7F890000912008820986422D1
:1000D000E593B40336E592F812018DE591F89000AE
:1000E00011120088209825E591F890001A120088D6
:1000F000209822E591F890002312008820981FE5AF
:1001000091F890002E12008820981C22E594F5604A
:10011000E595F56122E594F562E595F56322E594B0
:10012000F564E595F56522E594F566E595F56722B4
:10013000D29922E593B40230E591F89000111200B3
:1001400088209825E591F890001A120088209822BE
:10015000E591F890002312008820981FE591F8900F
:10016000002E12008820981C22E560F594E561F5C8
:100170009522E562F594E563F59522E564F594E54D
:1001800065F59522E566F594E567F5952275940089
:10019000759500E66025C39430FAE59575F00AA4DC
:1001A000F595ABF0E59475F00AA42BF594E5952A46
:1001B000F595E5943400F5940880D8221200393082
:0C01C00000FDC2001200591200A880F3DC
:00000001FF
