:0300000002062BCA
:0300030002088868
:03000B00020E00E2
:0100130032BA
:03001B00020E27AB
:0100230032AA
:03002B00020E4280
:100030000000000000000000000000000000600060
:10004000000000000071310000007A736177320017
:10005000006378646534330000207666747235007E
:10006000006E62686779360000006D6A7537380087
:10007000002C6B696F303900002E2F6C3B702D0007
:10008000000027005B3D000000000A5D005C0000EE
:100090000000000000000000000000000000000060
:1000A0000000000000000000000000000000000050
:1000B000C0E0C0D0C000C001C002E4F538F539F599
:1000C0003AF53BF53C7A20E533A2E779047830E64F
:1000D00033F608D9FA79057838E636D4F608D9F92E
:1000E000DAE5D002D001D000D0D0D0E022C0E0C00C
:1000F000D0C000C001C002E4F538F539F53AF53B4F
:10010000F53C7A20E533A2E779047830E633F60847
:10011000D9FA79057838C0D0E6243320E70224D014
:1001200020E30224FDD0D033F608D9EADAD6D00293
:10013000D001D000D0D0D0E022C0E0C0D0C000C0FC
:1001400001C0027A207905C3783CE613C0D030E7BD
:100150000224D030E30224FDF618D0D0D9EC790483
:100160007833E613F618D9FADADBD002D001D000E2
:10017000D0D0D0E022C0E0C0D0E5302534F530E565
:10018000313535F531E5323536F532E5333537F58C
:1001900033D0D0D0E022C0E0C0D0C3E5309534F5F4
:1001A00030E5319535F531E5329536F532E5339563
:1001B00037F533D0D0D0E022C0E0C0D0C3E53095D1
:1001C00034E5319535E5329536E53395379200D0F3
:1001D000D0D0E022C0E0C0D0C3E5349530E53595FD
:1001E00031E5369532E53795339200D0D0D0E02214
:1001F000C0E0C0D0C200C3E53495307014E5359539
:1002000031700EE53695327008E53795337002D2BD
:1002100000D0D0D0E0221201F02000030201D4224D
:100220001201F02000030201B822C0E0C0F0C0D0EB
:10023000C000C001C002C003E5308534F0A4F8A9B5
:10024000F0E5318534F0A429F9E435F0FAE530859C
:1002500035F0A429F9E5F03AFAE433FBE5328534C8
:10026000F0A42AFAE5F03BFBE5318535F0A42AFA43
:10027000E5F03BFBE5308536F0A42AFAE5F03BFBE0
:10028000E5338534F0A42BFBE5328535F0A42BFB58
:10029000E5318536F0A42BFBE5308537F0A42BFB48
:1002A0008B338A3289318830D003D002D001D0001C
:1002B000D0D0D0F0D0E022C0E0C0D0C000C001C09B
:1002C00002C003C0047C20E4F8F9FAFBC3E5303334
:1002D000F530E53133F531E53233F532E53333F5D9
:1002E00033E833F8E933F9EA33FAEB33FBC3E89543
:1002F00034E99535EA9536EB95374013E89534F8AF
:10030000E99535F9EA9536FAEB9537FB433001DC90
:10031000BBD004D003D002D001D000D0D0D0E02296
:10032000C0E0E58CFAE58AFBE589FCC28CC2A9D065
:10033000E022C0E0ECF589EAF58CEBF58AD2A9D28F
:100340008CD0E022C0E05389F0438901C28CC28D79
:10035000D0E022C0E0C0D0C002C003C004C006C0CC
:10036000071203201203447F007EC81203B71EBE8B
:10037000FF011FEE4F70F4C2A2120332D007D00665
:10038000D004D003D002D0D0D0E02212035322C038
:10039000E07405C0E01203531203DED0E01470F3E2
:1003A000D0E022C0E0740AC0E01203531203DED092
:1003B000E01470F3D0E022C0E0D2A21203C6C2A2C1
:1003C0001203C6D0E022C0E0C28CC28D758CFE75CF
:1003D0008A3ED28C308DFDC28CC28DD0E022C0E02E
:1003E000C007C0067F007E641203FB1EBEFF011F14
:1003F000EE4F70F4D006D007D0E022C0E0C0057DFB
:10040000B8000000DDFBD005D0E0225741524E4934
:100410004E473A204348414E474553204E4F5420C3
:100420004150504C4945442E20544F20454E544590
:100430005220534554204D4F44452C2042454749B6
:100440004E20434F4D4D414E4420574954482022A1
:1004500043222E0A0D3E004552524F523A20494E39
:1004600056414C494420434F4D4D414E442E0A0DB8
:100470003E000A0D4552524F523A20494E56414CC9
:10048000494420494E5055542E20454E5445522043
:1004900041204E554D42455220302D3235352E0AE1
:1004A0000D3E00506172616D20534F414B20544509
:1004B0004D503F203D00506172616D20534F414BC4
:1004C0002054494D453F203D00506172616D2052DE
:1004D00045464C4F572054454D503F203D005061FC
:1004E00072616D205245464C4F572054494D453F4F
:1004F000203D000A0D506172616D65746572207354
:10050000617665642E0A0D3E000A0D5245464C4F39
:10051000572053544152544544202D204D6F6E694D
:10052000746F72696E6720656E61626C65642E0A15
:100530000D000A0D5245464C4F5720434F4D504C2D
:10054000455445202D204B6579626F6172642065AA
:100550006E61626C65642E0A0D3E005265666C6FBA
:1005600077204F76656E2056312E30004552524F1F
:1005700052204500557365722041626F72742020CD
:100580002020200054656D702044726F70203E3D25
:10059000313043004F7665722054656D70203E32D5
:1005A0003430430053656E736F72204661696C7519
:1005B0007265200053746174652054696D656F75B0
:1005C00074202000486561746572204661756C7402
:1005D00020202000446F6F72204F70656E6564208C
:1005E00020202000506F7765722049737375652055
:1005F00020202000526561647920200052616D70D6
:100600002D3E5300536F616B2020200052616D70AE
:100610002D3E52005265666C6F772000436F6F6C01
:10062000696E670054696D653A200075817F759029
:10063000C075B0FF1206BC1206D11206E21206F611
:10064000120703120D02120D9E90055B120CF3129D
:100650000DED120680740D120723740A120723741D
:100660003E120723300A05C20A120C85120A011233
:100670000C04120A14120A22120C40120D8F80E48C
:10068000753D00753E19753F19754019754119750D
:100690004200754300754400754500754600754776
:1006A00000754800754B96754C3C754DDC754E2DAC
:1006B000754F00C20A754900754A00225389F043FC
:1006C0008901758CD5758A90D2B9D2A9D28CD2AF56
:1006D0002253890F438910758DD5758B90C2ABC29B
:1006E0008E2275C80075CBFA75CAB475CDFA75CC73
:1006F000B4D2ADD2CA2275CBFF75CAF775C83475AE
:10070000985222D2B3D288D2A8D2AF78007900C250
:1007100001C202C207C208C20975500075510075B6
:100720005200223099FDC299F59922E49360061295
:100730000723A380F622C0E0C0F0C0D0E5476008E0
:10074000B4640A754A148011754A00800CE5477537
:10075000F014A475F06484F54AD0D0D0F0D0E02233
:1007600090003093222004047591C6227591922244
:1007700075500075510075520022AA52BA0013AA92
:1007800051BA000BAA50BA0003F55022F55122F5D8
:10079000522222E5506053E5501207EC404CFCE534
:1007A0005160441207EC4042FDE55260301207EC04
:1007B0004038FEEC75F064A4FFE5F0700FED75F0C5
:1007C0000AA42F4025FFEF2E4020C322ECB4021ACA
:1007D000ED75F00AA42EC39438500F80E0EC75F04C
:1007E0000AA42D4005C322ECC322D322C394304077
:1007F0000BF5F0C3940A5004E5F0C322D32275F040
:100800006484AAF0F5F0E5F060052430120723EACD
:1008100075F00A84ABF0F5F0EA7A64C39A5004E507
:10082000F06007E5F02430120723EB243012072391
:1008300022200309200403E54B22E54C2220040377
:10084000E54D22E54E221207934028FA20030D20A1
:100850000405EAF54B8010EAF54C800B200405EA0C
:10086000F54D8003EAF54E9004F312072BC20712F0
:10087000077022E550600A90047212072B1207706D
:100880002290047212072B22C0E0C0D0E8B400040A
:10089000A2B3400808E8B401060209FC0209FCC33F
:1008A000940A5012A2B3E913F9E8B409EFE9B4F0DD
:1008B00008D2010209FC0209EA2001131207606054
:1008C000DBF5E8300715B40A091208460209FC02F4
:1008D00009E612072312077A0209FCB40A1B300842
:1008E0003E740A120723740D1207232003162004F6
:1008F0000B9004A312072B801C0209979004B612D8
:10090000072B80112004089004C912072B80069041
:1009100004DE12072BD207C2081207700209FC304E
:10092000094B740A120723740D12072320031320A6
:1009300004089004A312072B80199004B612072B09
:1009400080112004089004C912072B80069004DE51
:1009500012072B1208311207FE740A120723740DB6
:10096000120723743E120723C2090209FC740A12FB
:100970000723740D120723743E1207232005063047
:10098000020D0209FC90045712072BC205806D90DE
:10099000040B12072B8065120723B47104C2028076
:1009A0005BD206200207B46353D202804FB47307B0
:1009B000C2037595028045B47209D203759501D2C0
:1009C000068039B47409D204120765D208802DB4A8
:1009D0007809C204120765D2088021B46704D209DD
:1009E000801AD2058016C2018012B40B08800078EC
:1009F0000079008007C3940C400280F3D0D0D0E08F
:100A00003220960F120D9E2096093096FD754801F2
:100A1000020B9322E53E6003B4FF06754804020B07
:100A20009322E53DB4004A75470012073620973EF1
:100A3000120D9E2097383097FDC2A8C288C28F75CC
:100A40008DD5758B90754600C20AD28ED2AB9005BB
:100A50000912072B753D0112038B75420075430087
:100A6000754400E53EF53FF540F541754F00020B3A
:100A70008EB4016E754764120736E53EC39540405B
:100A800004E53EF540E540C3953EC3940A40067533
:100A90004802020B93E541C3953EC394144006758A
:100AA0004807020B93E54F7015E544B40110754FEC
:100AB00001E53EC394325006754806020B93E54BA0
:100AC000C3953E500F753D0212038B75420075446D
:100AD00000020ADFE544B40206754805020B9302E2
:100AE0000B8EB40220754714120736E54CC39542AD
:100AF0005010753D0312038B754200754400E53EAE
:100B0000F540020B8EB40335754764120736E53E97
:100B1000C395404004E53EF540E54DC3953E500F7A
:100B2000753D0412038B754200754400020B3AE5D3
:100B300044B40206754805020B93020B8EB40428D8
:100B4000754714120736E53EC394F05002800675CF
:100B50004803020B93E54EC395425009753D0512BB
:100B6000038B754200020B8EB405237547001207F4
:100B700036E53EC3943C5016C28EC2ABC28FC288CB
:100B8000D2A890053212072B753D0012038FE53E67
:100B9000F54122754700120736C2A0C28EC2ABC211
:100BA0008FC288D2A81203A3120D3690056C120CC6
:100BB000F3E5482430120D4B74C0120D3FE5481484
:100BC00075F010A49005742582F582E5F03583F563
:100BD00083120CF3740A120723740D120723900575
:100BE0006C12072BE5482430120723740A120723DE
:100BF000740D120723743E120723120DF9753D0080
:100C000075480022C0E0E53DB40005753E19802D11
:100C1000B40108E5422419F53E8022B40205753E70
:100C200096801AB40308E5422496F53E800FB4047A
:100C300005753EDC800774DCC39542F53ED0E022AA
:100C40007480120D3FE53D75F008A49005F42582EF
:100C5000F582E5F03583F583120CF37420120D4B09
:100C6000E53E120CAB7443120D4B74C0120D3F9055
:100C70000624120CF3E543120CAB743A120D4BE54B
:100C800042120CAB22E53E120CCF742C120723E566
:100C90003D2430120723742C120723E547120CCF92
:100CA000740D120723740A12072322C0E0C0F075E6
:100CB000F064844430120D4BE5F075F00A84443042
:100CC000120D4BE5F04430120D4BD0F0D0E022C0B5
:100CD000E0C0F075F064844430120723E5F075F04D
:100CE0000A844430120723E5F04430120723D0F081
:100CF000D0E022C0E0E4936006120D4BA380F6D052
:100D0000E022120D9E7433120D3F120DB674321292
:100D10000D3F120DB67428120D3F120DC2740C1245
:100D20000D3F120DC27401120D3F120DC274061256
:100D30000D3F120DC2227401120D3F120DC222C2CC
:100D400093120D57120D73120DD922D293120D5713
:100D5000120D73120DD922C0E0A2E79283A2E6928F
:100D600082A2E59281A2E49280D294120DE3C29411
:100D7000D0E022C0E0A2E39283A2E29282A2E192BA
:100D800081A2E09280D294120DE3C294D0E022C0FE
:100D9000E07A05120DAA120DAADAF8D0E022C0E01E
:100DA0007A05120DAADAFBD0E022C0E07A32120DE9
:100DB000CEDAFBD0E022C0E07A19120DCEDAFBD0F9
:100DC000E022C0E07A0A120DCEDAFBD0E022C0E0C9
:100DD0007BFA0000DBFCD0E022C0E07B3E00DBFDC4
:100DE000D0E022C0E07B0600DBFDD0E022C0E07C4A
:100DF0000A120D8FDCFBD0E022120DED120DED2258
:100E0000C0E0C0D0758CD5758A900545E545B464C1
:100E1000117545000542E542B43C077542000543A3
:100E20000544D0D0D0E032C0E0C0D0758DD5758BF0
:100E3000900546E546B40A05754600D20AD0D0D0E2
:100E4000E032C0E0C0D0C2CF0549E549B414057511
:100E500049007400E549C3954A5006D2A0D2A1804A
:0A0E600004C2A0C2A1D0D0D0E0323D
:00000001FF
