:030000000200E417
:10000300C0F9A4B0999282F88090C0E0C000C0010A
:10001300C0027534007535007536007A10C3EC33B1
:10002300FCED33FDE5343534D4F534E5353535D4DD
:10003300F535E5363536D4F536DAE2D002D001D0DF
:1000430000D0E022C0E0C0F0C000C001C002C00385
:10005300C004C005A830A931AA32AB337C007D00AF
:10006300EB700CEA7009C3E894E8E994034018C301
:10007300E894E8F8E99403F9EA9400FAEB9400FBB6
:100083000CEC70DC0D80D912000D9000037591C645
:10009300E534540F93F592E534C4540F93547FF52C
:1000A30093E535540FC0E0E535C4540F700BE536C6
:1000B30070077594FFD0E08005D0E093F594E535A3
:1000C300C4540F600593F58E8003758EFF758FFF03
:1000D300D005D004D003D002D001D000D0F0D0E0BE
:1000E300227530D275311E75320075330012004708
:0300F3000200F315
:00000001FF
