:100000000200C2C00078FA000000D8FBD00022C075
:1000100000C001793278FAD8FED9FADAF6D001D0E8
:100020000022D285120003C28512000322A2E792A9
:1000300083A2E69282A2E59281A2E492801200223B
:1000400022D28402004BC28402004BA2E79283A218
:10005000E69282A2E59281A2E49280120022A2E3BB
:100060009283A2E29282A2E19281A2E092801200A7
:100070002222C285C2847A3212000F743012002DFF
:100080007A0512000F743012002D7A0112000F74DD
:100090003012002D7A0112000F742012002D7A0107
:1000A00012000F74281200467408120046740112E0
:1000B00000467A0512000F7406120046740C1200F6
:1000C000462275817F7580FF7590FF75A0FF75B022
:1000D000FF1200727480120046744112004174C213
:0A00E000120046744212004180FE37
:00000001FF
