:03000000020404F3
:03002B000202B717
:10002E00C0E0C0D0C000C001C002E4F538F539F51B
:10003E003AF53BF53C7A20E533A2E779047830E6D1
:10004E0033F608D9FA79057838E636D4F608D9F9B0
:10005E00DAE5D002D001D000D0D0D0E022C0E0C08E
:10006E00D0C000C001C002E4F538F539F53AF53BD1
:10007E00F53C7A20E533A2E779047830E633F608CA
:10008E00D9FA79057838C0D0E6243320E70224D097
:10009E0020E30224FDD0D033F608D9EADAD6D00216
:1000AE00D001D000D0D0D0E022C0E0C0D0C000C07F
:1000BE0001C0027A207905C3783CE613C0D030E740
:1000CE000224D030E30224FDF618D0D0D9EC790406
:1000DE007833E613F618D9FADADBD002D001D00065
:1000EE00D0D0D0E022C0E0C0D0E5302534F530E5E8
:1000FE00313535F531E5323536F532E5333537F50F
:10010E0033D0D0D0E022C0E0C0D0C3E5309534F576
:10011E0030E5319535F531E5329536F532E53395E5
:10012E0037F533D0D0D0E022C0E0C0D0C3E5309553
:10013E0034E5319535E5329536E53395379200D075
:10014E00D0D0E022C0E0C0D0C3E5349530E535957F
:10015E0031E5369532E53795339200D0D0D0E02296
:10016E00C0E0C0D0C200C3E53495307014E53595BB
:10017E0031700EE53695327008E53795337002D240
:10018E0000D0D0D0E02212016E20000302015222D4
:10019E0012016E20000302013622C0E0C0F0C0D072
:1001AE00C000C001C002C003E5308534F0A4F8A938
:1001BE00F0E5318534F0A429F9E435F0FAE530851F
:1001CE0035F0A429F9E5F03AFAE433FBE53285344B
:1001DE00F0A42AFAE5F03BFBE5318535F0A42AFAC6
:1001EE00E5F03BFBE5308536F0A42AFAE5F03BFB63
:1001FE00E5338534F0A42BFBE5328535F0A42BFBDB
:10020E00E5318536F0A42BFBE5308537F0A42BFBCA
:10021E008B338A3289318830D003D002D001D0009E
:10022E00D0D0D0F0D0E022C0E0C0D0C000C001C01D
:10023E0002C003C0047C20E4F8F9FAFBC3E53033B6
:10024E00F530E53133F531E53233F532E53333F55B
:10025E0033E833F8E933F9EA33FAEB33FBC3E895C5
:10026E0034E99535EA9536EB95374013E89534F831
:10027E00E99535F9EA9536FAEB9537FB433001DC13
:10028E00BBD004D003D002D001D000D0D0D0E02219
:10029E0075C80075CDFA75CCB475CBFA75CAB4E4D1
:1002AE00F54EF54FD2ADD2CA22C2CFC0E0C0D005B6
:1002BE004EE54E7002054FE54EB4000EE54FB40804
:1002CE0009E4F54EF54FD201B2E81202E0D0D0D0DB
:1002DE00E032C0E00550E550B41413755000E551FE
:1002EE006006D2B7D2028011C2B7C202800BE550AF
:1002FE00C395514004C2B7C202D0E022C0E0C0D0C4
:10030E00E54D75F00584B415027414F551D0D0D0B6
:02031E00E022DB
:10032000854130854231854332854433853D34856E
:100330003E35853F36854037120114854534854664
:10034000358547368548371201A87534107535272D
:10035000753600753700120235854934854A358572
:100360004B36854C371201147534107535277536A8
:1003700000753700120235E53330E705754D008012
:100380001BE533700FE532700BE5317007E530B4D3
:1003900065004005754D64800385304D22C0F9A489
:1003A000B0999282F880908883C6A1868EC0E0C002
:1003B000F0C0D075520075530075540075F0648418
:1003C000F552E5F075F00A84F55385F054D0D0D09D
:1003D000F0D0E022C0E0C082C083E54D1203AD90B2
:1003E000039DE55293F593E55393F592E55493F508
:1003F00091D083D082D0E022C0E0C2013001FDDA8A
:10040000F9D0E02275817F759D8075E800759500B3
:10041000E4F550F551754D0012029ED2AF754D00B6
:1004200012030A753D40753E42753F0F75400075D9
:1004300041C075425C754315754400754588754625
:1004400013754700754800754940754A9C754B0007
:10045000754C0012032012030A1203D47A0312030C
:04046000F802042377
:00000001FF
