:03000000020117E3
:10002B0002004775C80075CDFA75CCB475CBFA755F
:10003B00CAB4E4F530F531D2ADD2CA22C2CFC0E09A
:10004B00C0D00530E53070020531E530B4000EE567
:10005B0031B40809E4F530F531D200B2E812007082
:10006B00D0D0D0E032C0E00532E532B41413753293
:10007B0000E5336006D2B7D2018011C2B7C201804E
:10008B000BE532C395334004C2B7C201D0E022C0A6
:10009B00E0C0D0E53475F00584B415027414F53363
:1000AB00D0D0D0E022C0F9A4B0999282F880908889
:1000BB0083C6A1868EC0E0C0F0C0D0753500753602
:1000CB000075370075F06484F535E5F075F00A843A
:1000DB00F53685F037D0D0D0F0D0E022C0E0C0822A
:1000EB00C083E5341200C09000B0E53593F593E57D
:1000FB003693F592E53793F591D083D082D0E022F9
:10010B00C0E0C2003000FDDAF9D0E02275817F75C6
:10011B009D8075E800759500E4F532F53375340074
:10012B0012002ED2AF75340012009A75341E1200D5
:10013B009A1200E77A0512010B75345A12009A12C3
:10014B0000E77A0512010B75340A12009A1200E7C8
:10015B007A0312010B75343212009A1200E77A03FC
:10016B0012010B75344B12009A1200E77A0312013D
:10017B000B75340012009A1200E77A0212010B750C
:10018B00346412009A1200E77A0312010B02013653
:00000001FF
