:0300000002029465
:0100030032CA
:03000B000206A446
:0100130032BA
:01001B0032B2
:0100230032AA
:10002400C0E0C0D0C000C001C002E4F538F539F525
:100034003AF53BF53C7A20E533A2E779047830E6DB
:1000440033F608D9FA79057838E636D4F608D9F9BA
:10005400DAE5D002D001D000D0D0D0E022C0E0C098
:10006400D0C000C001C002E4F538F539F53AF53BDB
:10007400F53C7A20E533A2E779047830E633F608D4
:10008400D9FA79057838C0D0E6243320E70224D0A1
:1000940020E30224FDD0D033F608D9EADAD6D00220
:1000A400D001D000D0D0D0E022C0E0C0D0C000C089
:1000B40001C0027A207905C3783CE613C0D030E74A
:1000C4000224D030E30224FDF618D0D0D9EC790410
:1000D4007833E613F618D9FADADBD002D001D0006F
:1000E400D0D0D0E022C0E0C0D0E5302534F530E5F2
:1000F400313535F531E5323536F532E5333537F519
:1001040033D0D0D0E022C0E0C0D0C3E5309534F580
:1001140030E5319535F531E5329536F532E53395EF
:1001240037F533D0D0D0E022C0E0C0D0C3E530955D
:1001340034E5319535E5329536E53395379200D07F
:10014400D0D0E022C0E0C0D0C3E5349530E5359589
:1001540031E5369532E53795339200D0D0D0E022A0
:10016400C0E0C0D0C200C3E53495307014E53595C5
:1001740031700EE53695327008E53795337002D24A
:1001840000D0D0D0E02212016420000302014822F2
:1001940012016420000302012C22C0E0C0F0C0D090
:1001A400C000C001C002C003E5308534F0A4F8A942
:1001B400F0E5318534F0A429F9E435F0FAE5308529
:1001C40035F0A429F9E5F03AFAE433FBE532853455
:1001D400F0A42AFAE5F03BFBE5318535F0A42AFAD0
:1001E400E5F03BFBE5308536F0A42AFAE5F03BFB6D
:1001F400E5338534F0A42BFBE5328535F0A42BFBE5
:10020400E5318536F0A42BFBE5308537F0A42BFBD4
:100214008B338A3289318830D003D002D001D000A8
:10022400D0D0D0F0D0E022C0E0C0D0C000C001C027
:1002340002C003C0047C20E4F8F9FAFBC3E53033C0
:10024400F530E53133F531E53233F532E53333F565
:1002540033E833F8E933F9EA33FAEB33FBC3E895CF
:1002640034E99535EA9536EB95374013E89534F83B
:10027400E99535F9EA9536FAEB9537FB433001DC1D
:10028400BBD004D003D002D001D000D0D0D0E02223
:1002940075817F7590C075B0FF1202FD12059E1224
:1002A40006429006CB12058F1206911202CC12035D
:1002B400101204921203231203311204CE1204DC2E
:1002C40012052112063380E6753D00753E19753F0F
:1002D400197540197541197542007543007544003C
:1002E40075450075460075470075489675493C7517
:1002F4004ADC754B2D754C00225389F043890175F6
:100304008CD5758A90D2A9D28CD2AF2220960F12A6
:1003140006422096093096FD75470102045322E5F2
:100324003E6003B4FF0675470402045322E53DB45E
:10033400002975460020972012064220971A30970C
:10034400FD753D01754200754300754400E53EF5B9
:100354003FF540F541754C0002044EB40168754602
:1003640064E53EC395404004E53EF540E540C39551
:100374003EC3940A4006754702020453E541C395FF
:100384003EC394144006754707020453E54C7015A8
:10039400E544B40110754C01E53EC3943250067532
:1003A4004706020453E548C3953E500C753D02755B
:1003B40042007544000203C7E544B4780675470556
:1003C40002045302044EB4021A754614E549C39557
:1003D40042500D753D03754200754400E53EF540FD
:1003E40002044EB4032F754664E53EC395404004B1
:1003F400E53EF540E54AC3953E500C753D04754213
:1004040000754400020416E544B45A067547050213
:10041400045302044EB40422754614E53EC394F01A
:1004240050028006754703020453E54BC3954250BE
:1004340006753D0575420002044EB4050D7546006F
:10044400E53EC3943C5003753D00E53EF5412275FD
:100454004600C2A0D2A21205D29006DC12058FE596
:100464004724301205E774C01205DBE5471475F024
:1004740010A49006E52582F582E5F03583F5831214
:10048400058F12069DC2A2753D0075470022C0E08B
:10049400E53DB40005753E19802DB40108E54224FC
:1004A40019F53E8022B40205753E96801AB40308FD
:1004B400E5422496F53E800FB40405753EDC8007C2
:1004C40074DCC39542F53ED0E022E5466005D2A037
:1004D400D2A122C2A0C2A12274801205DBE53D751F
:1004E400F008A49007652582F582E5F03583F5834D
:1004F40012058F74201205E7E53E12054774431276
:1005040005E774C01205DB90079B12058FE54312C3
:100514000547743A1205E7E54212054722E53E1203
:10052400056B742C12062BE53D243012062B742C1B
:1005340012062BE54612056B740D12062B740A1273
:10054400062B22C0E0C0F075F0648444301205E745
:10055400E5F075F00A8444301205E7E5F044301202
:1005640005E7D0F0D0E022C0E0C0F075F064844428
:100574003012062BE5F075F00A84443012062BE5A0
:10058400F0443012062BD0F0D0E022C0E0E49360B7
:10059400061205E7A380F6D0E02212064274331255
:1005A40005DB12065A74321205DB12065A7428123D
:1005B40005DB120666740C1205DB12066674011262
:1005C40005DB12066674061205DB12066622740148
:1005D4001205DB12066622C2931205F312060F12ED
:1005E400067D22D2931205F312060F12067D22C055
:1005F400E0A2E79283A2E69282A2E59281A2E4922B
:1006040080D294120687C294D0E022C0E0A2E39282
:1006140083A2E29282A2E19281A2E09280D2941219
:100624000687C294D0E0223099FDC299F59922C080
:10063400E07A0512064E12064EDAF8D0E022C0E047
:100644007A0512064EDAFBD0E022C0E07A321206B6
:1006540072DAFBD0E022C0E07A19120672DAFBD01B
:10066400E022C0E07A0A120672DAFBD0E022C0E08F
:100674007BFA0000DBFCD0E022C0E07B3E00DBFD27
:10068400D0E022C0E07B0600DBFDD0E022C0E07CAD
:100694000A120633DCFBD0E02212069112069122E4
:1006A400C0E0C0D0758CD5758A900545E545B46425
:1006B400117545000542E542B43C07754200054307
:1006C4000544D0D0D0E0325265666C6F77204F7607
:1006D400656E2056312E30004552524F522045301F
:1006E40000557365722041626F72742020202020AF
:1006F4000054656D702044726F70203E3D3130436C
:10070400004F7665722054656D70203E323430435C
:100714000053656E736F72204661696C7572652053
:100724000053746174652054696D656F757420207D
:1007340000486561746572204661756C74202020E0
:1007440000446F6F72204F70656E65642020202016
:1007540000506F77657220497373756520202020DF
:100764000052656164792020200052616D702D3E35
:10077400532000536F616B202020200052616D7064
:100784002D3E5220005265666C6F77202000436F27
:0E0794006F6C696E67200054696D653A200035
:00000001FF
