:0300000002050FE7
:030003000203965F
:100030000000000000000000000000000000600060
:10004000000000000071310000007A736177320017
:10005000006378646534330000207666747235007E
:10006000006E62686779360000006D6A7537380087
:10007000002C6B696F303900002E2F6C3B702D0007
:10008000000027005B3D000000000A5D005C0000EE
:100090000000000000000000000000000000000060
:1000A0000000000000000000000000000000000050
:1000B000C0F9A4B0999282F880908883C6A1868EF8
:1000C0005741524E494E473A204348414E474553C7
:1000D000204E4F54204150504C4945442E20544FFF
:1000E00020454E54455220534554204D4F44452CF5
:1000F00020424547494E20434F4D4D414E442057E5
:10010000495448202243222E0A0D3E004552524FA8
:10011000523A20494E56414C494420434F4D4D419F
:100120004E442E0A0D3E000A0D4552524F523A20BF
:10013000494E56414C494420494E5055542E204575
:100140004E5445522041204E554D42455220302DAF
:100150003235352E0A0D3E00506172616D20534FCD
:10016000414B2054454D503F203D00506172616D20
:1001700020534F414B2054494D453F203D00506195
:1001800072616D205245464C4F572054454D503FAB
:10019000203D00506172616D205245464C4F572002
:1001A00054494D453F203D000A0D506172616D6517
:1001B0007465722073617665642E0A0D3E0075CBFE
:1001C000FF75CAF775C834759852223099FDC299E7
:1001D000F59922E49360061201CBA380F622D2B3F4
:1001E000D288D2A8D2AF78007900C200C201C2067C
:1001F000C207C208753400753500753600229000BC
:100200003093222003047591C62275919222200218
:1002100004C2808002D280200304C2828002D28283
:10022000200104C2848002D28412033FFAEA20E053
:1002300004C2938002D293EA20E104C2958002D2E4
:1002400095EA20E204C2978002D297EA20E304C232
:10025000A18002D2A1EA20E404C2A38002D2A3EAD0
:1002600020E504C2A58002D2A5EA20E604C2A78048
:1002700002D2A7EA20E704C2B18002D2B1227534CB
:100280000075350075360022AA36BA0013AA35BAB1
:10029000000BAA34BA0003F53422F53522F53622D4
:1002A00022E5346053E5341202FA404CFCE5356037
:1002B000441202FA4042FDE53660301202FA40383C
:1002C000FEEC75F064A4FFE5F0700FED75F00AA484
:1002D0002F4025FFEF2E4020C322ECB4021AED750B
:1002E000F00AA42EC39438500F80E0EC75F00AA4F5
:1002F0002D4005C322ECC322D322C39430400BF51A
:10030000F0C3940A5004E5F0C322D32275F064844C
:10031000AAF0F5F0E5F0600524301201CBEA75F0A3
:100320000A84ABF0F5F0EA7A64C39A5004E5F06011
:1003300007E5F024301201CBEB24301201CB222050
:100340000209200303E53022E53122200303E532D0
:1003500022E533221202A14028FA20020D200305D3
:10036000EAF5308010EAF531800B200305EAF5321A
:100370008003EAF5339001A81201D3C20612027E6F
:1003800022E534600A9001271201D312027E2290E6
:1003900001271201D322C0E0C0D0E8B40004A2B308
:1003A000400808E8B4010602050A02050AC3940AD7
:1003B0005012A2B3E913F9E8B409EFE9B4F008D296
:1003C0000002050A0204F82000131201FE60DBF5AA
:1003D000E8300615B40A0912035402050A0204F4AF
:1003E0001201CB12028802050AB40A1B30073E74C0
:1003F0000A1201CB740D1201CB20021620030B90C0
:1004000001581201D3801C0204A590016B1201D384
:10041000801120030890017E1201D3800690019381
:100420001201D3D206C20712027E02050A30084B1F
:10043000740A1201CB740D1201CB200213200308A1
:100440009001581201D3801990016B1201D38011D1
:1004500020030890017E1201D380069001931201BF
:10046000D312033F12030C740A1201CB740D120154
:10047000CB743E1201CBC20802050A740A1201CBEA
:10048000740D1201CB743E1201CB20040630010D15
:1004900002050A90010C1201D3C204806D9000C0C5
:1004A0001201D380651201CBB47104C201805BD20A
:1004B00005200107B46353D201804FB47307C20211
:1004C0007595028045B47209D202759501D20580F6
:1004D00039B47409D203120203D207802DB478090B
:1004E000C203120203D2078021B46704D208801A23
:1004F000D2048016C2008012B40B08800078007904
:10050000008007C3940C400280F3D0D0D0E0327555
:100510009AFF759BFF759CFF759D0175E8007595A9
:10052000007591C675300075310075320075330065
:1005300075817F740D1201DE1201BE1201CB740AA7
:100540001201CB743E1201CB12020E12020E80FB7E
:00000001FF
