:0300000002062BCA
:030003000208549C
:03000B00020F0ED3
:0100130032BA
:03001B00020F359C
:0100230032AA
:100030000000000000000000000000000000600060
:10004000000000000071310000007A736177320017
:10005000006378646534330000207666747235007E
:10006000006E62686779360000006D6A7537380087
:10007000002C6B696F303900002E2F6C3B702D0007
:10008000000027005B3D000000000A5D005C0000EE
:100090000000000000000000000000000000000060
:1000A0000000000000000000000000000000000050
:1000B000C0E0C0D0C000C001C002E4F538F539F599
:1000C0003AF53BF53C7A20E533A2E779047830E64F
:1000D00033F608D9FA79057838E636D4F608D9F92E
:1000E000DAE5D002D001D000D0D0D0E022C0E0C00C
:1000F000D0C000C001C002E4F538F539F53AF53B4F
:10010000F53C7A20E533A2E779047830E633F60847
:10011000D9FA79057838C0D0E6243320E70224D014
:1001200020E30224FDD0D033F608D9EADAD6D00293
:10013000D001D000D0D0D0E022C0E0C0D0C000C0FC
:1001400001C0027A207905C3783CE613C0D030E7BD
:100150000224D030E30224FDF618D0D0D9EC790483
:100160007833E613F618D9FADADBD002D001D000E2
:10017000D0D0D0E022C0E0C0D0E5302534F530E565
:10018000313535F531E5323536F532E5333537F58C
:1001900033D0D0D0E022C0E0C0D0C3E5309534F5F4
:1001A00030E5319535F531E5329536F532E5339563
:1001B00037F533D0D0D0E022C0E0C0D0C3E53095D1
:1001C00034E5319535E5329536E53395379200D0F3
:1001D000D0D0E022C0E0C0D0C3E5349530E53595FD
:1001E00031E5369532E53795339200D0D0D0E02214
:1001F000C0E0C0D0C200C3E53495307014E5359539
:1002000031700EE53695327008E53795337002D2BD
:1002100000D0D0D0E0221201F02000030201D4224D
:100220001201F02000030201B822C0E0C0F0C0D0EB
:10023000C000C001C002C003E5308534F0A4F8A9B5
:10024000F0E5318534F0A429F9E435F0FAE530859C
:1002500035F0A429F9E5F03AFAE433FBE5328534C8
:10026000F0A42AFAE5F03BFBE5318535F0A42AFA43
:10027000E5F03BFBE5308536F0A42AFAE5F03BFBE0
:10028000E5338534F0A42BFBE5328535F0A42BFB58
:10029000E5318536F0A42BFBE5308537F0A42BFB48
:1002A0008B338A3289318830D003D002D001D0001C
:1002B000D0D0D0F0D0E022C0E0C0D0C000C001C09B
:1002C00002C003C0047C20E4F8F9FAFBC3E5303334
:1002D000F530E53133F531E53233F532E53333F5D9
:1002E00033E833F8E933F9EA33FAEB33FBC3E89543
:1002F00034E99535EA9536EB95374013E89534F8AF
:10030000E99535F9EA9536FAEB9537FB433001DC90
:10031000BBD004D003D002D001D000D0D0D0E02296
:10032000C0E0E58CFAE58AFBE589FCC28CC2A9D065
:10033000E022C0E0ECF589EAF58CEBF58AD2A9D28F
:100340008CD0E022C0E05389F0438901C28CC28D79
:10035000D0E022C0E0C0D0C002C003C004C006C0CC
:10036000071203201203447F007EC81203B71EBE8B
:10037000FF011FEE4F70F4C2A2120332D007D00665
:10038000D004D003D002D0D0D0E02212035322C038
:10039000E07405C0E01203531203DED0E01470F3E2
:1003A000D0E022C0E0740AC0E01203531203DED092
:1003B000E01470F3D0E022C0E0D2A21203C6C2A2C1
:1003C0001203C6D0E022C0E0C28CC28D758CFE75CF
:1003D0008A3ED28C308DFDC28CC28DD0E022C0E02E
:1003E000C007C0067F007E641203FB1EBEFF011F14
:1003F000EE4F70F4D006D007D0E022C0E0C0057DFB
:10040000B8000000DDFBD005D0E0225741524E4934
:100410004E473A204348414E474553204E4F5420C3
:100420004150504C4945442E20544F20454E544590
:100430005220534554204D4F44452C2042454749B6
:100440004E20434F4D4D414E4420574954482022A1
:1004500043222E0A0D3E004552524F523A20494E39
:1004600056414C494420434F4D4D414E442E0A0DB8
:100470003E000A0D4552524F523A20494E56414CC9
:10048000494420494E5055542E20454E5445522043
:1004900041204E554D42455220302D3235352E0AE1
:1004A0000D3E00506172616D20534F414B20544509
:1004B0004D503F203D00506172616D20534F414BC4
:1004C0002054494D453F203D00506172616D2052DE
:1004D00045464C4F572054454D503F203D005061FC
:1004E00072616D205245464C4F572054494D453F4F
:1004F000203D000A0D506172616D65746572207354
:10050000617665642E0A0D3E000A0D5245464C4F39
:10051000572053544152544544202D204D6F6E694D
:10052000746F72696E6720656E61626C65642E0A15
:100530000D000A0D5245464C4F5720434F4D504C2D
:10054000455445202D204B6579626F6172642065AA
:100550006E61626C65642E0A0D3E005265666C6FBA
:1005600077204F76656E2056312E30004552524F1F
:1005700052204500557365722041626F72742020CD
:100580002020200054656D702044726F70203E3D25
:10059000313043004F7665722054656D70203E32D5
:1005A0003430430053656E736F72204661696C7519
:1005B0007265200053746174652054696D656F75B0
:1005C00074202000486561746572204661756C7402
:1005D00020202000446F6F72204F70656E6564208C
:1005E00020202000506F7765722049737375652055
:1005F00020202000526561647920200052616D70D6
:100600002D3E5300536F616B2020200052616D70AE
:100610002D3E52005265666C6F772000436F6F6C01
:10062000696E670054696D653A200075817F759029
:10063000C075B0FF1206C61206D91206EA1206F9F4
:10064000120E10120BA1120EAC90055B120E0112CD
:100650000EFB120692740D120719740A1207197410
:100660003E1207191209CD900687120721120C6B52
:10067000120C7F120CDB1209E01209EE120D40126F
:100680000D4E120E9D80DD504C5320574F524B0D96
:100690000A00753D00753E19753F19754019754181
:1006A0001975420075430075440075450075460094
:1006B000754700754800754996754A3C754BDC7561
:1006C0004C2D754D00225389F0438901758CD575E9
:1006D0008A90D2A9D28CD2AF2253890F4389107548
:1006E0008DD5758B90C2ABD28E2275CBFF75CAF7B4
:1006F00075C834759852D29922D2B3D288D2A8D272
:10070000AF78007900C201C202C207C208C20975EF
:100710004E00754F00755000223099FDC299F59931
:1007200022E4936006120719A380F622900030930A
:10073000222004047591C62275919222754E00758F
:100740004F0075500022AA50BA0013AA4FBA000BEE
:10075000AA4EBA0003F54E22F54F22F5502222E5AB
:100760004E6053E54E1207B8404CFCE54F60441212
:1007700007B84042FDE55060301207B84038FEEC43
:1007800075F064A4FFE5F0700FED75F00AA42F403A
:1007900025FFEF2E4020C322ECB4021AED75F00ABB
:1007A000A42EC39438500F80E0EC75F00AA42D40BD
:1007B00005C322ECC322D322C39430400BF5F0C30F
:1007C000940A5004E5F0C322D32275F06484AAF0A1
:1007D000F5F0E5F060052430120719EA75F00A8497
:1007E000ABF0F5F0EA7A64C39A5004E5F06007E5EF
:1007F000F02430120719EB243012071922200309C4
:10080000200403E54922E54A22200403E54B22E5C2
:100810004C2212075F4028FA20030D200405EAF558
:10082000498010EAF54A800B200405EAF54B800365
:10083000EAF54C9004F3120721C20712073C22E5A7
:100840004E600A90047212072112073C2290047233
:1008500012072122C0E0C0D0E8B40004A2B34008CF
:1008600008E8B401060209C80209C8C3940A501274
:10087000A2B3E913F9E8B409EFE9B4F008D2010230
:1008800009C80209B620011312072C60DBF5E83015
:100890000715B40A091208120209C80209B21207A0
:1008A000191207460209C8B40A1B30083E740A121E
:1008B0000719740D12071920031620040B9004A3C6
:1008C000120721801C0209639004B61207218011CF
:1008D0002004089004C912072180069004DE120744
:1008E00021D207C20812073C0209C830094B740A1A
:1008F000120719740D12071920031320040890041D
:10090000A312072180199004B61207218011200438
:10091000089004C912072180069004DE12072112F4
:1009200007FD1207CA740A120719740D1207197409
:100930003E120719C2090209C8740A120719740D78
:10094000120719743E12071920050630020D02091C
:10095000C8900457120721C205806D90040B12073E
:10096000218065120719B47104C202805BD206208F
:100970000207B46353D202804FB47307C203759564
:10098000028045B47209D203759501D2068039B44C
:100990007409D204120731D208802DB47809C20438
:1009A000120731D2088021B46704D209801AD20517
:1009B0008016C2018012B40B088000780079008094
:1009C00007C3940C400280F3D0D0D0E03220960FC1
:1009D000120EAC2096093096FD754801020B3922A3
:1009E000E53E6003B4FF06754804020B3922E53D7D
:1009F000B40039754700209730120EAC20972A308A
:100A000097FDC2A8D2AB7546009005091207217563
:100A10003D0112038B754200754300754400E53EAD
:100A2000F53FF540F541754D00020B34B4016B758F
:100A30004764E53EC395404004E53EF540E540C3CC
:100A4000953EC3940A4006754802020B39E541C33E
:100A5000953EC394144006754807020B39E54D7066
:100A600015E544B40110754D01E53EC394325006BE
:100A7000754806020B39E549C3953E500F753D0296
:100A800012038B754200754400020A97E544B4785E
:100A900006754805020B39020B34B4021D75471464
:100AA000E54AC395425010753D0312038B75420011
:100AB000754400E53EF540020B34B40332754764DB
:100AC000E53EC395404004E53EF540E54BC3953E09
:100AD000500F753D0412038B754200754400020AE5
:100AE000ECE544B45A06754805020B39020B34B4E0
:100AF0000425754714E53EC394F0500280067548FE
:100B000003020B39E54CC395425009753D051203AC
:100B10008B754200020B34B4051A754700E53EC3DD
:100B2000943C5010C2ABD2A8900532120721753DFB
:100B30000012038FE53EF54122754700C2A0C2AB0B
:100B4000D2A81203A3120E4490056C120E01E548C0
:100B50002430120E5974C0120E4DE5481475F01071
:100B6000A49005742582F582E5F03583F583120E95
:100B700001740A120719740D12071990056C1207F7
:100B800021E5482430120719740A120719740D124E
:100B90000719743E120719120F07753D00754800BA
:100BA00022C2F9C2FAD2FB2292F9D2FAA2F8C2FA10
:100BB00022E4C2FBD3120BA892E3A2F2120BA8927A
:100BC000E2A2F0120BA892E1A2F1120BA892E0F9B6
:100BD000E4D3120BA892E7C3120BA892E6C3120B40
:100BE000A892E5C3120BA892E4C3120BA892E3C328
:100BF000120BA892E2C3120BA892E1C3120BA892A7
:100C0000E0F8D2FB227454120719743D120719E55B
:100C10003BC4540F4430120719E53B540F443012C3
:100C20000719E53AC4540F4430120719E53A540F36
:100C30004430120719E539C4540F443012071974AF
:100C40002E120719E539540F4430120719E538C43C
:100C5000540F4430120719E538540F443012071965
:100C6000740D120719740A1207192275F000120B7D
:100C7000B1120BB175540075530089528851227519
:100C8000F001120BB1120BB17533007532008931CE
:100C9000883075340A7535107536007537001202C4
:100CA0002A7534517535007536007537001202B754
:100CB0007534AA75350A75360075370012019675B8
:100CC000340A7535007536007537001202B7853362
:100CD000588532578531568530552275F002120BF2
:100CE000B1120BB17533007532008931883075341B
:100CF0000A75351075360075370012022A753451A1
:100D00007535007536007537001202B775344075B9
:100D1000354275360F75370012022A75340C753559
:100D2000307536007537001202B7753455753500C9
:100D30007536007537001201751200B0120C0522CD
:100D4000E5476005D2A0D2A122C2A0C2A122748030
:100D5000120E4DE53D75F008A49005F42582F5824C
:100D6000E5F03583F583120E017420120E59E53E2D
:100D7000120DB97443120E5974C0120E4D90062410
:100D8000120E01E543120DB9743A120E59E54212E2
:100D90000DB922E53E120DDD742C120719E53D2434
:100DA00030120719742C120719E547120DDD740D66
:100DB000120719740A12071922C0E0C0F075F06416
:100DC000844430120E59E5F075F00A844430120E56
:100DD00059E5F04430120E59D0F0D0E022C0E0C006
:100DE000F075F064844430120719E5F075F00A8458
:100DF0004430120719E5F04430120719D0F0D0E062
:100E000022C0E0E4936006120E59A380F6D0E022DF
:100E1000120EAC7433120E4D120EC47432120E4DFB
:100E2000120EC47428120E4D120ED0740C120E4DF8
:100E3000120ED07401120E4D120ED07406120E4D09
:100E4000120ED0227401120E4D120ED022C2931235
:100E50000E65120E81120EE722D293120E65120E4B
:100E600081120EE722C0E0A2E79283A2E69282A25C
:100E7000E59281A2E49280D294120EF1C294D0E065
:100E800022C0E0A2E39283A2E29282A2E19281A236
:100E9000E09280D294120EF1C294D0E022C0E07AA7
:100EA00005120EB8120EB8DAF8D0E022C0E07A05CA
:100EB000120EB8DAFBD0E022C0E07A32120EDCDA91
:100EC000FBD0E022C0E07A19120EDCDAFBD0E0227F
:100ED000C0E07A0A120EDCDAFBD0E022C0E07BFA36
:100EE0000000DBFCD0E022C0E07B3E00DBFDD0E078
:100EF00022C0E07B0600DBFDD0E022C0E07C0A12CD
:100F00000E9DDCFBD0E022120EFB120EFB22C0E095
:100F1000C0D0758CD5758A900545E545B4641175CA
:100F200045000542E542B43C0775420005430544CF
:100F3000D0D0D0E032C0E0C0D0758DD5758B900593
:100F400046E546B40A06754600120D93D0D0D0E0AF
:010F5000326E
:00000001FF
