:030000000204A057
:10000300C2CA75C83075CBFF75CAF7D2CA75985284
:10001300223099FDC299F59922E4936006120014E7
:04002300A380F6229E
:10002700C0E0C0D0C000C001C002C033C032C03180
:10003700C030E4F538F539F53AF53BF53C7A20E57B
:1000470033A2E779047830E633F608D9FA790578E8
:1000570038E636D4F608D9F9DAE5D030D031D032DF
:10006700D033D002D001D000D0D0D0E022C0E0C041
:10007700D0C000C001C002C03CC03BC03AC039C0BC
:10008700387A207905C3783CE613C0D030E70224DC
:10009700D030E30224FDF618D0D0D9EC79047833B8
:1000A700E613F618D9FADADBD200E5387002C20097
:1000B700D038D039D03AD03BD03CD002D001D00094
:1000C700D0D0D0E022C0E0C0D0E5302534F530E50F
:1000D700313535F531E5323536F532E5333537F536
:1000E700339200D0D0D0E022C0E0C0D0C3E5309535
:1000F70034F530E5319535F531E5329536F532E5AC
:10010700339537F5339200D0D0D0E022C0E0C0D08D
:10011700C3E5309534E5319535E5329536E53395C8
:10012700379200D0D0D0E022C0E0C0D0C3E53495EC
:1001370030E5359531E5369532E53795339200D080
:10014700D0D0E022C0E0C0D0C200C3E53495307003
:1001570014E5359531700EE53695327008E537951B
:10016700337002D200D0D0D0E02212014B2000031E
:1001770002012F2212014B20000302011322C0E0CB
:10018700C0F0C0D0C000C001C002C003C004C00599
:10019700E5308534F0A4F8A9F0E5318534F0A429D9
:1001A700F9E435F0FAE5308535F0A429F9E5F03AB8
:1001B700FAE433FBE5328534F0A42AFAE5F03BFB99
:1001C700E5318535F0A42AFAE5F03BFBE5308536C5
:1001D700F0A42AFAE5F03BFBE5338534F0A42BFBCA
:1001E700ACF07D00E5328535F0A42BFBE5F03CFC57
:1001F700E43DFDE5318536F0A42BFBE5F03CFCE45E
:100207003DFDE5308537F0A42BFBE5F03CFCE43DF4
:10021700FDEC4DFCE5338535F0A445F04CFCE532AB
:100227008536F0A445F04CFCE5318537F0A445F060
:100237004CFCE5338536F0A445F04CFCE5328537B8
:10024700F0A445F04CFCE5338537F0A445F04CFCB1
:100257008B338A3289318830D200BC0002C200D089
:1002670005D004D003D002D001D000D0D0D0F0D038
:10027700E022C0E0C0D0C000C001C002C003C0047B
:10028700E5344535453645377005D2000202E4C2EC
:10029700007C20E4F8F9FAFBC3E53033F530E531AB
:1002A70033F531E53233F532E53333F533E833F8F7
:1002B700E933F9EA33FAEB33FBC3E89534E99535CB
:1002C700EA9536EB95374013E89534F8E99535F913
:1002D700EA9536FAEB9537FB433001DCBBD004D007
:1002E70003D002D001D000D0D0D0E02285303485B1
:1002F700313585323685333722E530C534F530E57B
:1003070031C535F531E532C536F532E533C537F553
:0203170033228F
:10031900C00078BE00000000D8FAD00022C000C09A
:1003290001793278DFD8FED9FADAF6D001D0002285
:10033900D291120319C29112031922A2E79281A242
:10034900E69283A2E59285A2E49287120339A2E399
:100359009281A2E29283A2E19285A2E0928712039E
:100369003922D297020344C297020344C291C002C0
:100379007A28120326D002743312037074331203DD
:100389007074321203707428120370740C120370A3
:100399007401120370C0027A02120326D00222E409
:1003A90093600612036BA380F62244404480020343
:1003B90070C0E0E8C4540F443012036BE8540F4492
:1003C9003012036BD0E022C0F9A4B0999282F88070
:1003D900908883C6A1868E781E794A7AFADAFED980
:1003E900FAD8F6229003D0E539C4540F93547FF517
:1003F90094E539540F93F593E538C4540F93F59266
:10040900E538540F93F59122C0E07401141203B337
:10041900D0E0745612036B743D12036BE539C45472
:100429000F443012036B742E12036BE539540F44D9
:100439003012036BE538C4540F443012036BE538AE
:10044900540F443012036B227456120014743D1277
:100459000014E539C4540F4430120014742E1200EC
:1004690014E539540F4430120014E538C4540F44CC
:1004790030120014E538540F4430120014740D1270
:100489000014740A12001422566F6C746D65746539
:100499007220746573740075817FE4F5E8F595122F
:1004A9000003759AAA759B82120375C0E074011442
:1004B9001203B5D0E0C083C082C0E090049112035A
:1004C900A8D0E0D082D08390049112001C740D1240
:1004D9000014740A12001475A1801203E0E5E854AF
:1004E90007F5A175330075320085A33185A23075F2
:1004F90034887535137536007537001201857534E2
:10050900007535107536007537001202797534E8B3
:1005190075350375360075370012018575340C750C
:100529003530753600753700120279753416753510
:10053900007536007537001200CC1200271203ED42
:100549001204111204511203E01203E01203E01223
:0505590003E00204E6CE
:00000001FF
