:03000000020240B9
:030003000201AF48
:10010000000000000000000000000000000060008F
:10011000000000000071310000007A736177320046
:1001200000637864653433000020766674723500AD
:10013000006E62686779360000006D6A75373800B6
:10014000002C6B696F303900002E2F6C3B702D0036
:10015000000027005B3D000000000A5D005C00001D
:10016000000000000000000000000000000000008F
:10017000000000000000000000000000000000007F
:10018000C0F9A4B0999282F880908883C6A1868E27
:10019000D2B3D288D2A8D2AF78007900C200229020
:1001A000010093222003047591C62275919222C00A
:1001B000E0C0D0E8B40004A2B3400708E8B40105E9
:1001C000807902023BC3940A505FA2B3E913F9E8B5
:1001D000B40968E9B4F004D200806012019F605B4A
:1001E000F5E8B4710EC201C202C203759500120196
:1001F000A48048200107B46342D201803EB4730753
:10020000C2027595028034B47207D20275950180DE
:100210002AB47407D2031201A48020B4781DC2034B
:100220001201A48016C2008012B40B08800078006E
:1002300079008007C3940C400280F3D0D0D0E03224
:1002400075E8007595007591C675817F12019080E3
:01025000FEAF
:00000001FF
