:1000000002007175CBFF75CAF775C8347598522216
:100010003099FDC299F59922E4936006120010A36D
:1000200080F6227830E660061200100880F722572A
:1000300068617420697320796F7572206E616D65D7
:100040003F0A0D000A0D48656C6C6F20000A0D0018
:0B0050003098FDC298E59912001022C4
:10005B007830120050C0E0C39410D0E04005F60891
:10006B00B84DEFE4F62275817F75E80075950012A7
:10007B00000390002F12001812005B900044120036
:0C008B001812002390004D12001880FE97
:00000001FF
