:0300000002054FA7
:03002B00020414B8
:10002E00758920758DF7858D8BD28E759850D299E6
:10003E00223099FDC299F59922E493600612003F91
:04004E00A380F62273
:10005200C0E0C0D0C000C001C002C033C032C03155
:10006200C030E4F538F539F53AF53BF53C7A20E550
:1000720033A2E779047830E633F608D9FA790578BD
:1000820038E636D4F608D9F9DAE5D030D031D032B4
:10009200D033D002D001D000D0D0D0E022C0E0C016
:1000A200D0C000C001C002C03CC03BC03AC039C091
:1000B200387A207905C3783CE613C0D030E70224B1
:1000C200D030E30224FDF618D0D0D9EC790478338D
:1000D200E613F618D9FADADBD200E5387002C2006C
:1000E200D038D039D03AD03BD03CD002D001D00069
:1000F200D0D0D0E022C0E0C0D0E5302534F530E5E4
:10010200313535F531E5323536F532E5333537F50A
:10011200339200D0D0D0E022C0E0C0D0C3E5309509
:1001220034F530E5319535F531E5329536F532E580
:10013200339537F5339200D0D0D0E022C0E0C0D062
:10014200C3E5309534E5319535E5329536E533959D
:10015200379200D0D0D0E022C0E0C0D0C3E53495C1
:1001620030E5359531E5369532E53795339200D055
:10017200D0D0E022C0E0C0D0C200C3E534953070D8
:1001820014E5359531700EE53695327008E53795F0
:10019200337002D200D0D0D0E022120176200003C8
:1001A20002015A2212017620000302013E22C0E01F
:1001B200C0F0C0D0C000C001C002C003C004C0056E
:1001C200E5308534F0A4F8A9F0E5318534F0A429AE
:1001D200F9E435F0FAE5308535F0A429F9E5F03A8D
:1001E200FAE433FBE5328534F0A42AFAE5F03BFB6E
:1001F200E5318535F0A42AFAE5F03BFBE53085369A
:10020200F0A42AFAE5F03BFBE5338534F0A42BFB9E
:10021200ACF07D00E5328535F0A42BFBE5F03CFC2B
:10022200E43DFDE5318536F0A42BFBE5F03CFCE432
:100232003DFDE5308537F0A42BFBE5F03CFCE43DC9
:10024200FDEC4DFCE5338535F0A445F04CFCE53280
:100252008536F0A445F04CFCE5318537F0A445F035
:100262004CFCE5338536F0A445F04CFCE53285378D
:10027200F0A445F04CFCE5338537F0A445F04CFC86
:100282008B338A3289318830D200BC0002C200D05E
:1002920005D004D003D002D001D000D0D0D0F0D00D
:1002A200E022C0E0C0D0C000C001C002C003C00450
:1002B200E5344535453645377005D20002030FC295
:1002C200007C20E4F8F9FAFBC3E53033F530E53180
:1002D20033F531E53233F532E53333F533E833F8CC
:1002E200E933F9EA33FAEB33FBC3E89534E99535A0
:1002F200EA9536EB95374013E89534F8E99535F9E8
:10030200EA9536FAEB9537FB433001DCBBD004D0DB
:1003120003D002D001D000D0D0D0E0228530348585
:10032200313585323685333722E530C534F530E54F
:1003320031C535F531E532C536F532E533C537F528
:02034200332264
:10034400C00078BE00000000D8FAD00022C000C06F
:1003540001793278DFD8FED9FADAF6D001D000225A
:10036400D291120344C29112034422A2E79281A2C1
:10037400E69283A2E59285A2E49287120364A2E343
:100384009281A2E29283A2E19285A2E09287120373
:100394006422D29702036FC29702036FC291C00214
:1003A4007A28120351D002743312039B743312035C
:1003B4009B743212039B742812039B740C12039BCC
:1003C400740112039BC0027A02120351D00222E488
:1003D400936006120396A380F622444044800203ED
:1003E4009BC0E0E8C4540F4430120396E8540F4411
:1003F40030120396D0E02275C80075CDFA75CCB4DE
:1004040075CBFA75CAB4E4F53DF53ED2ADD2CA2235
:10041400C2CFC0E0C0D0B2E8053DE53D7002053E64
:10042400E53DB4000EE53EB40809E4F53DF53ED2E1
:1004340001B2E812043FD0D0D0E032C0E0053FE57D
:100444003FB41413753F00E5406006D2B7D2028072
:1004540011C2B7C202800BE53FC395404004C2B746
:10046400C202D0E022C0E0C0D0E54175F00584B4FA
:1004740015027414F540D0D0D0E022C0F9A4B0998C
:100484009282F880908883C6A1868E781E794A7AF3
:10049400FADAFED9FAD8F62290047FE539C4540F6B
:1004A40093547FF594E539540F93F593E538C45488
:1004B4000F93F592E538540F93F59122C0E074013F
:1004C400141203DED0E07456120396743D120396A0
:1004D400E539C4540F4430120396742E120396E582
:1004E40039540F4430120396E538C4540F44301283
:1004F4000396E538540F44301203962274561200C2
:100504003F743D12003FE539C4540F443012003F9C
:10051400742E12003FE539540F443012003FE53881
:10052400C4540F443012003FE538540F44301200D5
:100534003F740D12003F740A12003F22566F6C7410
:100544006D6574657220746573740075817FE4F55C
:10055400E8F59512002E759AAA759B82759D807593
:10056400A18012048FE4F53FF5407541001203FBAE
:10057400D2AF7541001204691203A0C0E0740114E3
:100584001203E0D0E0C083C082C0E09005401203B3
:10059400D3D0E0D082D08375413212046975411EF4
:1005A4001204691205AD0205A1F5A1753300753277
:1005B4000085A33185A230753488753513753600EE
:1005C4007537001201B07534007535107536007535
:1005D40037001202A47534E8753503753600753793
:1005E400001201B075340C7535307536007537005E
:1005F4001202A4753416753500753600753700126D
:0906040000F71200521205002259
:00000001FF
