:03000000020057A4
:1000030075CBFF75CAF775C834759852223099FDC0
:10001300C299F59922E4936006120010A380F62298
:10002300E660061200100880F7223098FDC298E5BA
:100033009912001022783012002DC0E0C39410D022
:10004300E04005F608B84DEFE4F6220D0A009000F3
:040053004E12001831
:1000570075817F75E8007595001200039000841282
:1000670000187830120038120051900093120018CF
:10007700783012002390004E12001880DF0D0A45D9
:100087006E74657220746578743A2000596F752014
:0800970074797065643A2000E1
:00000001FF
